:020000040800F2
:10000000005000203D1400082514000827140008A3
:10001000291400082B1400082D140008000000000B
:100020000000000000000000000000002F14000885
:1000300031140008000000003314000835140008D3
:10004000851400088514000885140008851400082C
:10005000851400088514000885140008851400081C
:10006000851400088514000885140008851400080C
:1000700085140008851400088514000885140008FC
:1000800085140008851400088514000885140008EC
:1000900085140008851400088514000885140008DC
:1000A00085140008851400088514000885140008CC
:1000B00085140008851400088514000885140008BC
:1000C00085140008851400088514000885140008AC
:1000D000851400088514000885140008851400089C
:1000E000851400088514000885140008000000002D
:1000F0000000000000000000000000000000000000
:0C01000000000000000000005FF808F1A3
:1001100010B5054C237833B9044B13B10448AFF341
:1001200000800123237010BD280000200000000083
:100130002027000808B5034B1BB103490348AFF360
:10014000008008BD000000002C00002020270008CF
:1001500081F0004102E000BF83F0004330B54FEA78
:1001600041044FEA430594EA050F08BF90EA020FE5
:100170001FBF54EA000C55EA020C7FEA645C7FEA78
:10018000655C00F0E2804FEA5454D4EB5555B8BF9B
:100190006D420CDD2C4480EA020281EA030382EA0C
:1001A000000083EA010180EA020281EA0303362D9E
:1001B00088BF30BD11F0004F4FEA01314FF4801C71
:1001C0004CEA113102D0404261EB410113F0004F83
:1001D0004FEA03334CEA133302D0524263EB43033A
:1001E00094EA050F00F0A780A4F10104D5F1200ED8
:1001F0000DDB02FA0EFC22FA05F2801841F1000133
:1002000003FA0EF2801843FA05F359410EE0A5F106
:1002100020050EF1200E012A03FA0EFC28BF4CF037
:10022000020C43FA05F3C01851EBE37101F00045ED
:1002300007D54FF0000EDCF1000C7EEB00006EEBFA
:100240000101B1F5801F1BD3B1F5001F0CD3490884
:100250005FEA30004FEA3C0C04F101044FEA4452DB
:1002600012F5800F80F09A80BCF1004F08BF5FEA62
:10027000500C50F1000041EB045141EA050130BD42
:100280005FEA4C0C404141EB0101013C28BFB1F554
:10029000801FE9D291F0000F04BF01460020B1FA9F
:1002A00081F308BF2033A3F10B03B3F120020CDA72
:1002B0000C3208DD02F1140CC2F10C0201FA0CF050
:1002C00021FA02F10CE002F11402D8BFC2F1200CB5
:1002D00001FA02F120FA0CFCDCBF41EA0C0190406B
:1002E000E41AA2BF01EB0451294330BD6FEA0404B4
:1002F0001F3C1CDA0C340EDC04F11404C4F120029F
:1003000020FA04F001FA02F340EA030021FA04F3B0
:1003100045EA030130BDC4F10C04C4F1200220FA07
:1003200002F001FA04F340EA0300294630BD21FA45
:1003300004F0294630BD94F0000F83F4801306BF0B
:1003400081F480110134013D4EE77FEA645C18BFFF
:100350007FEA655C29D094EA050F08BF90EA020F96
:1003600005D054EA000C04BF1946104630BD91EA8E
:10037000030F1EBF0021002030BD5FEA545C05D191
:100380004000494128BF41F0004130BD14F58004D0
:100390003CBF01F5801130BD01F0004545F0FE4144
:1003A00041F470014FF0000030BD7FEA645C1ABF79
:1003B000194610467FEA655C1CBF0B46024650EAB0
:1003C000013406BF52EA033591EA030F41F40021DC
:1003D00030BD00BF90F0000F04BF0021704730B562
:1003E0004FF4806404F132044FF000054FF0000137
:1003F00050E700BF90F0000F04BF0021704730B5F8
:100400004FF4806404F1320410F0004548BF4042CC
:100410004FF000013EE700BF42004FEAE2014FEA21
:1004200031014FEA02701FBF12F07F4393F07F4FFC
:1004300081F06051704732F07F4208BF704793F0FF
:100440007F4F04BF41F40021704730B54FF4607412
:1004500001F0004521F000411CE700BF50EA010215
:1004600008BF704730B54FF000050AE050EA0102BE
:1004700008BF704730B511F0004502D5404261EB2E
:1004800041014FF4806404F132045FEA915C3FF46F
:10049000D8AE4FF003025FEADC0C18BF03325FEA0C
:1004A000DC0C18BF033202EBDC02C2F1200300FABD
:1004B00003FC20FA02F001FA03FE40EA0E0021FAE2
:1004C00002F11444BDE600BF70B54FF0FF0C4CF4D0
:1004D000E06C1CEA11541DBF1CEA135594EA0C0F82
:1004E00095EA0C0F00F0DEF82C4481EA030621EABD
:1004F0004C5123EA4C5350EA013518BF52EA0335F8
:1005000041F4801143F4801338D0A0FB02CE4FF0A9
:100510000005E1FB02E506F00042E0FB03E54FF0D9
:100520000006E1FB03569CF0000F18BF4EF0010ED1
:10053000A4F1FF04B6F5007F64F5407404D25FEACD
:100540004E0E6D4146EB060642EAC62141EA555180
:100550004FEAC52040EA5E504FEACE2EB4F1FD0CC2
:1005600088BFBCF5E06F1ED8BEF1004F08BF5FEA40
:10057000500E50F1000041EB045170BD06F00046F2
:1005800046EA010140EA020081EA0301B4EB5C049F
:10059000C2BFD4EB0C0541EA045170BD41F4801197
:1005A0004FF0000E013C00F3AB8014F1360FDEBFBC
:1005B000002001F0004170BDC4F10004203C35DA98
:1005C0000C341BDC04F11404C4F1200500FA05F31B
:1005D00020FA04F001FA05F240EA020001F00042BC
:1005E00021F0004110EBD37021FA04F642EB060132
:1005F0005EEA430E08BF20EAD37070BDC4F10C045C
:10060000C4F1200500FA04F320FA05F001FA04F21F
:1006100040EA020001F0004110EBD37041F100010B
:100620005EEA430E08BF20EAD37070BDC4F1200516
:1006300000FA05F24EEA020E20FA04F301FA05F27E
:1006400043EA020321FA04F001F0004121FA04F226
:1006500020EA020000EBD3705EEA430E08BF20EAF6
:10066000D37070BD94F0000F0FD101F00046400030
:1006700041EB010111F4801F08BF013CF7D041EAB2
:10068000060195F0000F18BF704703F000465200B6
:1006900043EB030313F4801F08BF013DF7D043EA87
:1006A0000603704794EA0C0F0CEA135518BF95EA3D
:1006B0000C0F0CD050EA410618BF52EA4306D1D1C4
:1006C00081EA030101F000414FF0000070BD50EAE3
:1006D000410606BF1046194652EA430619D094EA6D
:1006E0000C0F02D150EA013613D195EA0C0F05D157
:1006F00052EA03361CBF104619460AD181EA0301AB
:1007000001F0004141F0FE4141F470014FF0000062
:1007100070BD41F0FE4141F4780170BD70B54FF0FD
:10072000FF0C4CF4E06C1CEA11541DBF1CEA13557D
:1007300094EA0C0F95EA0C0F00F0A7F8A4EB05045F
:1007400081EA030E52EA03354FEA013100F0888056
:100750004FEA03334FF0805545EA131343EA12631F
:100760004FEA022245EA111545EA10654FEA0026D4
:100770000EF000419D4208BF964244F1FD0404F58D
:10078000407402D25B084FEA3202B61A65EB0305E9
:100790005B084FEA32024FF480104FF4002CB6EBA6
:1007A000020E75EB030E22BFB61A754640EA0C0026
:1007B0005B084FEA3202B6EB020E75EB030E22BF66
:1007C000B61A754640EA5C005B084FEA3202B6EBA7
:1007D000020E75EB030E22BFB61A754640EA9C0066
:1007E0005B084FEA3202B6EB020E75EB030E22BF36
:1007F000B61A754640EADC0055EA060E18D04FEAF4
:10080000051545EA16754FEA06164FEAC30343EA93
:1008100052734FEAC2025FEA1C1CC0D111F4801F60
:100820000BD141EA00014FF000004FF0004CB6E759
:1008300011F4801F04BF01430020B4F1FD0C88BFF8
:10084000BCF5E06F3FF6AFAEB5EB030C04BFB6EB03
:10085000020C5FEA500C50F1000041EB045170BDF6
:100860000EF0004E4EEA113114EB5C04C2BFD4EB23
:100870000C0541EA045170BD41F480114FF0000EA7
:10088000013C90E645EA060E8DE60CEA135594EA23
:100890000C0F08BF95EA0C0F3FF43BAF94EA0C0F26
:1008A0000AD150EA01347FF434AF95EA0C0F7FF49B
:1008B00025AF104619462CE795EA0C0F06D152EAEF
:1008C00003353FF4FDAE1046194622E750EA4106D3
:1008D00018BF52EA43067FF4C5AE50EA41047FF4E4
:1008E0000DAF52EA43057FF4EBAE12E74FF0FF3C49
:1008F00006E000BF4FF0010C02E000BF4FF0010C1A
:100900004DF804CD4FEA410C7FEA6C5C4FEA430C92
:1009100018BF7FEA6C5C1BD001B050EA410C0CBFE1
:1009200052EA430C91EA030F02BF90EA020F002043
:10093000704710F1000F91EA030F58BF994208BFAA
:1009400090422CBFD8176FEAE37040F00100704767
:100950004FEA410C7FEA6C5C02D150EA013C07D1BE
:100960004FEA430C7FEA6C5CD6D152EA033CD3D009
:100970005DF8040B704700BF8446104662468C4603
:100980001946634600E000BF01B5FFF7B7FF002836
:1009900048BF10F1000F01BD4DF808EDFFF7F4FF5F
:1009A0000CBF012000205DF808FB00BF4DF808EDEA
:1009B000FFF7EAFF34BF012000205DF808FB00BF0D
:1009C0004DF808EDFFF7E0FF94BF012000205DF82F
:1009D00008FB00BF4DF808EDFFF7CEFF94BF0120E4
:1009E00000205DF808FB00BF4DF808EDFFF7C4FFDD
:1009F00034BF012000205DF808FB00BF4A0011D27F
:100A000012F5001211D20DD56FF47873B3EB625268
:100A10000ED44FEAC12343F0004343EA505323FA74
:100A200002F070474FF00000704750EA013002D1E9
:100A30004FF0FF3070474FF000007047F8B50424C6
:100A400000270E4D0E4E013C00D1F8BD00224FF4A0
:100A50000051284601F014F96420C6F8B07100F086
:100A60005BFD284601224FF4005101F009F90123F2
:100A70006420C6F8B03100F04FFDE4E700100140FB
:100A800000002142F8B5332400270E4D0E4E013CE4
:100A900000D1F8BD00224FF40051284601F0F0F8D3
:100AA0002820C6F8B07100F037FD284601224FF427
:100AB000005101F0E5F801232820C6F8B03100F01C
:100AC0002BFDE4E700100140000021427FB54FF408
:100AD0007A738DF80F00074800930DF11702012378
:100AE0000DF10F01006801F0FBFC9DF8170007B045
:100AF0005DF804FB74000020002370B5074E0D461E
:100B0000C6F89C31FFF7E2FF04462846FFF7DEFFF8
:100B100001232046C6F89C3170BD00BF00802142F1
:100B2000002310B5054CC4F89C31FFF7CFFFFF2020
:100B3000FFF7CCFF0123C4F89C3110BD0080214297
:100B4000F8B500230A4F0C46C7F89C311546FFF74D
:100B5000BDFF06462544AC4204D101233046C7F808
:100B60009C31F8BDFF20FFF7B1FF04F8010BF2E75D
:100B700000802142F8B500230A4F0C46C7F89C318B
:100B80001546FFF7A3FF06462544AC4204D10123D6
:100B90003046C7F89C31F8BD14F8010BFFF796FFFB
:100BA000F3E700BF0080214207B50F4B052218680C
:100BB0001B796946009030208DF80430FFF7DAFF8A
:100BC000052269461020FFF7BBFF6B46052013F88E
:100BD000012BA52A06D1013810F0FF00F7D103B090
:100BE0005DF804FB0120FAE738270008002310B560
:100BF000124C0146C4F8A0312022A020FFF7BAFF12
:100C00000123C4F8A031D4F81831002BFBD1072000
:100C1000FFF786FF044601462720FFF76DFFE30636
:100C200005D5FF21E120FFF767FF102010BD14F06C
:100C3000200F0CBFFF202020F8E700BF00802142DA
:100C4000002310B5144C0522C4F8A03113493020FC
:100C5000FFF790FF052212492A20FFF78BFF0121A1
:100C60002120FFF749FF01212220FFF745FF1A212C
:100C70002420FFF741FF28212520FFF73DFF0F210A
:100C80002620FFF739FF0E212020FFF735FF012333
:100C9000C4F8A03110BD00BF0080214243270008E6
:100CA0003E27000808B572B6FFF7ECFEFCE700002F
:100CB00010B50B4C20680268136823F040031360E2
:100CC0000023C0E9043301F0B3FB08B1FFF7EAFFEA
:100CD00023681A68136843F04003136010BD00BF17
:100CE0007400002008B5064B1860FFF7E1FF0022F2
:100CF000044BC3F8A0210122C3F89C2108BD00BF0A
:100D000074000020008021421FB5012200230190C1
:100D100001A90B48CDE9022300F0C0FC08B1FFF7A0
:100D2000C1FF074800F074FD0A21054800F006FCE9
:100D3000034800F0AFFC80B205B05DF804FB00BFD3
:100D400044000020F8B5002507460E462C46B54263
:100D500003D1B4FBF5F080B2F8BD3846FFF7D4FFFD
:100D60000444052000F0D8FB0135F0E70000000046
:100D70000722C74B2DE9F0471A7009228AB05A7032
:100D800014210120FFF7DEFFFFF724FBDFF804A3A7
:100D9000CAE9000114210220FFF7D4FFFFF71AFB74
:100DA000CAE9020114210320FFF7CCFFFFF712FB71
:100DB000CAE9040114210420FFF7C4FFFFF70AFB6E
:100DC000CAE9060114210520FFF7BCFFFFF702FB6B
:100DD000CAE9080114210620FFF7B4FFAE4B804694
:100DE0001868FFF719FB04460D46AC4B1868FFF76F
:100DF00013FBDAE90023FFF767FB22462B46FFF7D8
:100E0000ADF902460B46CAE90023A54BCDE9060120
:100E10001868FFF701FBDAE90223FFF755FB2246CA
:100E20002B46FFF79BF906460F469E4BCAE9026721
:100E30001868FFF7F1FADAE90423FFF745FB2246C9
:100E40002B46FFF78BF902460B46CAE90423964B63
:100E5000CDE900011868FFF7DFFADAE90623FFF7AA
:100E600033FB22462B46FFF779F902460B46CAE9C7
:100E700006238E4BCDE902011868FFF7CDFADAE9B7
:100E80000823FFF721FB22462B46FFF767F90246AE
:100E90000B46CDE904014046CAE90823FFF79AFA58
:100EA000834B804618688946FFF7B6FA02460B4620
:100EB00040464946FFF708FB22462B46FFF74EF90E
:100EC0000B4602460C46CDE9082303460022CAE938
:100ED0000A34784BFFF76AFD00220028754BDDE9E4
:100EE000040114BF4FF005084FF00608FFF75EFD40
:100EF000002200286F4BDDE9020118BF4FF0040803
:100F0000FFF754FD002200286A4BDDE9000118BFFD
:100F10004FF00308FFF74AFD00220028394630460B
:100F2000644B18BF4FF00208FFF740FD002818BFC0
:100F30004FF001084FF0000900240025FAE80223D1
:100F400020462946FFF70AF909F101095FFA89F9F4
:100F5000C84504460D46F1D1002230463946554B6E
:100F6000FFF7FAF80022544BFFF7AEFAFFF746FD01
:100F70000022C7B24F4BDDE90601FFF7EDF8002272
:100F80004D4BFFF7A1FAFFF739FD00220646DDE9D8
:100F90000001484BFFF7E0F80022474BFFF794FAB7
:100FA000FFF72CFD0022434B0644DDE90201FFF769
:100FB000D3F80022404BFFF787FAFFF71FFD5FFAD7
:100FC00080F9DFF8CC80F6B207EB09039B1B002207
:100FD000DDE9040188F80630364BFFF7BDF8002242
:100FE000354BFFF771FAFFF709FDF61B0644F6B221
:100FF000A6EB09030022DDE9080188F807302D4B34
:10100000FFF7AAF800222C4BFFF75EFAFFF7F6FC79
:10101000A9EB06060644002220462946264B88F8FE
:101020000860FFF751FA18A3D3E9002304460D46E0
:10103000FFF774FBFFF7E2FC294688F80900204619
:10104000FFF7DCFCFF23C0B2B0FBF3F3184403232B
:1010500088F80230142388F80330132388F804300A
:10106000292388F80A0088F805304046FFF7BEFDBE
:10107000202805D040460AB0BDE8F047FFF7B6BDCE
:101080000AB0BDE8F08700BF0000000000E06F403C
:10109000D0000020E0000020180000200000002008
:1010A00004000020080000200C0000201000002098
:1010B00014000020000008400000594010B594B012
:1010C000142200210CA801F023FB142200210DEBB7
:1010D000020001F01DFB1022002101A801F018FB05
:1010E00002244FF480330122CDE91143CDE90A23D4
:1010F0004FF4E0130AA80E92139300F0C7FD08B155
:10110000FFF7D0FD0F23CDE905344FF4806307903E
:10111000CDE90830214605A800F08EFF0028EFD168
:101120004FF4004301A80194039301F031F8002823
:10113000E6D114B010BD000000B589B000F0C8F9C8
:10114000FFF7BCFF102200210DEB020001F0E0FAD6
:10115000624B4FF400519A69614842F010029A6163
:101160009A69002402F010020092009A9A690126FE
:1011700042F020029A619A69022502F0200201924F
:10118000019A9A6942F004029A619A6902F0040293
:101190000292029A9A6942F008029A619B690022BF
:1011A00003F008030393039B00F06AFD00224FF451
:1011B00080514C4800F064FD00224FF4C0714A4851
:1011C00000F05EFD4FF40053454804A9CDE9043614
:1011D000CDE9064500F07AFC4FF48053414804A95C
:1011E000CDE90436CDE9064500F070FC40233E48C9
:1011F00004A9CDE90434069400F068FC4FF4C073F0
:10120000394804A9CDE90436CDE9064500F05EFC75
:10121000364D374B28462B604FF46023CDE904440C
:101220000694AC602C732C75EB616C602E6100F041
:1012300077FB08B1FFF736FD069004A92846CDE9F3
:10124000046600F02BFA0028F4D14FF48273294C85
:10125000294A4FF40071C4E900230823C4E90613A6
:101260000A23C4E90200C4E90400C4E90800A0623A
:101270002046E36201F0DCF80028DBD1226820463A
:10128000136843F040031360FFF72CFDFFF7D6FB14
:101290004FF47A7000F040F9FFF786FCD0B9C8200F
:1012A00000F03AF9FFF7CAFBFFF7CAFC134CFFF74F
:1012B0005FFD4FF47A7000F02FF900235020C4F83E
:1012C000B03100F029F901235020C4F8B03100F00A
:1012D00023F9ECE7FFF7B2FBDEE700BF00100240A6
:1012E0000010014000080140000C014044000020B3
:1012F000002401407800002000300140000021421D
:101300000E4B82B09A6942F001029A619A6902F02A
:1013100001020092009ADA6942F08052DA61DB69D8
:10132000074A03F080530193019B536823F0E06365
:1013300043F00073536002B0704700BF00100240DA
:101340000000014010B5044686B01022002102A81A
:1013500001F0DEF92268104B9A421BD103F56C4371
:101360009A690E4842F400729A619A6902A902F4DD
:1013700000720092009A9A6942F004029A619B6995
:101380007E2203F004030193019B0323CDE9022392
:1013900000F09CFB06B010BD002401400008014095
:1013A00030B51024054687B02246002102A801F07E
:1013B000AFF92A68184B9A422CD103F5604399691A
:1013C000164841F480519961996901F48051009166
:1013D000009A9969282241F0080199619B6902A944
:1013E00003F008030193019B0223CDE902230323A9
:1013F000059300F06BFB0023084802A9CDE90333F5
:10140000029400F063FB064A536843F0E06343F044
:101410000103536007B030BD00300140000C0140B3
:1014200000000140FEE7FEE7FEE7FEE7FEE770474B
:101430007047704700F05EB8704700000C480D49D7
:101440000D4A002302E0D458C4500433C4188C421F
:10145000F9D30A4A0A4C002301E013600432A24285
:10146000FBD3FFF7E9FF01F02FF9FFF765FE7047A7
:1014700000000020280000207C2700082800002011
:101480001C010020FEE7000038B50E4B0546187819
:101490004FF47A73B3FBF0F30B4A1068B0FBF3F030
:1014A00000F000FB044658B90F2D09D80246294622
:1014B0004FF0FF3000F0C4FA2046044B1D6038BDE9
:1014C0000120FCE7200000201C0000202400002058
:1014D000074A08B51368032043F01003136000F0B7
:1014E0009DFA0F20FFF7D0FFFFF70AFF002008BD8D
:1014F00000200240034A044B11681B780B44136020
:10150000704700BF1801002020000020014B186820
:10151000704700BF1801002038B50446FFF7F6FFFA
:101520000546631C1EBF044B1B78E418FFF7EEFF53
:10153000431BA342FAD338BD20000020F7B5002694
:1015400004460D460196FFF7E1FF236807469A68B7
:10155000D20508D50120A36A84F8246043F0200353
:10156000A36203B0F0BD5A68D60503D4DB6A13F456
:10157000700F3FD0414B02201E6800F083FE2368AD
:101580003F4A1969B6FBF0F611423E4A53D1D8687A
:101590003D4908424FD1196911425DD1DA683B4B90
:1015A0001A4214BF292314235E43019BB34225D260
:1015B0006A1C5CD0002D55D1019BB34257D2A36A5F
:1015C00043F00403A36200230BE0681C13D065B949
:1015D00023681B6813F002030CD1A26A42F00402D4
:1015E000A262032084F82430BBE7FFF78FFFC01B03
:1015F000A842EDD8226813689907E6D56FF0120368
:1016000022681360A36A43F40073A362936803F42F
:101610006023B3F5602F2ED1207B00282BD1A36A45
:1016200023F48073A362A36ADB0424D4A36A43F087
:101630000103A36295E71969114203D1D968134ADE
:1016400011420BD01969124A114209D1DB681342C9
:1016500014BFFC235423A7E72923A5E75423A3E7BA
:10166000FC23A1E7FFF752FFC01BA842A4D8019BAF
:101670000133019399E7002073E700BF1C000020AD
:101680002449922492244912244992009224490028
:10169000499224000368D86C70470000002373B59A
:1016A000019390F824300446012B6CD0012380F87C
:1016B00024304D680268062D086805EB850322D8A2
:1016C0001F26556B053B9E4025EA060500FA03F3ED
:1016D0002B43536309288B6800EB40054FF007014B
:1016E00029D9D6681E3DA94026EA0101AB400B432B
:1016F000D360A0F11003012B25D90020002384F82A
:10170000243002B070BD0C2D4FF01F0509D8166BA8
:10171000233B9D4026EA050500FA03F32B431363A0
:10172000D8E7D66A413B9D4026EA050500FA03F357
:101730002B43D362CEE71069A94020EA0101AB40F8
:101740000B431361D9E7114B9A4216D193681B02E0
:10175000D3D49368102843F400039360CDD10C4B8D
:101760000C4A1B68B3FBF2F30A2253430193019B1B
:10177000002BC2D0019B013BF8E7A36A012043F094
:101780002003A362BAE70220BBE700BF00240140A8
:101790001C00002040420F00002337B5019303686E
:1017A00004469A68D20702D5002003B030BD9A687B
:1017B00042F001029A60144B144A1B68B3FBF2F327
:1017C0000193019BE3B9FFF7A1FE054623689B68DF
:1017D000DB07E9D4FFF79AFE401B0228F6D92368FD
:1017E0009B6813F00103F1D1A26A012042F01002BC
:1017F000A262E26A84F8243042F00102E262D4E795
:10180000019B013BDCE700BF1C00002040420F00B1
:1018100010B590F824300446012B54D0012380F8F1
:101820002430FFF7B9FF002849D1A36A274A23F4DF
:10183000407323F0010343F48073A362236893424F
:1018400004D123494A6812F4702F2ED1A26A22F4DF
:101850008012A2625A68520541BFA26A22F4405225
:1018600042F48052A262A26A12F480521CBFE26A61
:1018700022F00602E262002284F824206FF00202C5
:101880001A609A6802F46022B2F5602F13D10F4AF1
:10189000934205D1A2F58062526812F4702F0AD1EA
:1018A0009A6842F4A0029A6010BDA26A42F48012C3
:1018B000A2624A68CFE79A6842F48012F3E70023F5
:1018C00084F82430F0E70220EEE700BF0028014052
:1018D0000024014038B5036804469A68D10701D452
:1018E000002038BD9A6822F001029A60FFF70EFED0
:1018F000054623689B68DB07F2D5FFF707FE401B10
:101900000228F6D923689B68DA07F2D5A36A01207A
:1019100043F01003A362E36A43F00103E362E0E7EC
:10192000F8B5044600286ED0836A23B9C36280F8F4
:101930002430FFF707FD2046FFF7CCFFA36A13F022
:10194000100362D1002860D1A26AE569616822F4BF
:10195000885222F0020242F002022943A568A262E4
:10196000227BB5F5807F41EA420137D0012D14BFBB
:1019700000274FF48077267D012E06D182BBA26915
:10198000013A47EA423646F400672268B5F5807F9F
:10199000566826F4694646EA0706566097681D4E63
:1019A00006EA070646EA0106966001D0012D02D13B
:1019B0002369013B1B05D56A25F470052B43D362CF
:1019C0009268154B1340994213D10023E362A36A36
:1019D00023F0030343F00103A362F8BD2F46CAE7D7
:1019E000A26A42F02002A262E26A42F00102E262CE
:1019F000CBE7A36A23F0120343F01003A362E36A68
:101A000043F00103E3620120E7E7A36A43F0100318
:101A1000A362F8E7FDF7E1FFFE0E1FFF074903028F
:101A2000CA6803F4E06322F4E0621204120C134368
:101A300043F0BF6343F40033CB60704700ED00E038
:101A4000164B30B5DC68C4F30224C4F10703251D2E
:101A5000042B28BF0423062D4FF0FF3598BF002428
:101A600005FA03F388BF033C21EA0303A34005FA08
:101A700004F422EA0402002843EA0203ACBF00F1A6
:101A80006040074A4FEA0313DBB2ABBF00F5614089
:101A900000F00F0080F80033135430BD00ED00E07B
:101AA00014ED00E00138B0F1807F0BD24FF0E0235D
:101AB000F021054A586182F823100020072298611E
:101AC0001A6170470120704700ED00E02DE9F74FE3
:101AD00000221646644F654BDFF894C1DFF894E1AD
:101AE0000D6835FA06F402D103B0BDE8F08F4FF06F
:101AF000010808FA06F805EA080438EA05057BD16A
:101B00004D68032D07D8013D022D00F28880DFE8E3
:101B100005F0969BA100122D00F099806ED8112D32
:101B200000F08F80FF2C98BF82464FF00F0988BFCE
:101B300000F1040A4FEA8605DAF8008088BF203DEC
:101B400009FA05FB28EA0B0802FA05F548EA05053B
:101B5000CAF80050D1F804A01AF0805F4CD0BD69DB
:101B600026F0030845F00105BD61BD6908F1804814
:101B700005F00105019508F5803806F0030B019D7D
:101B80004FEA8B0BD8F8085009FA0BF925EA090936
:101B9000394DA84262D005F58065A84260D005F5B0
:101BA0008065A8425ED005F58065A8420CBF03257C
:101BB000042505FA0BF545EA0905C8F808501D6823
:101BC0001AF4803F14BF2543A5431D605D681AF4D5
:101BD000003F14BF2543A5435D609D681AF4801F34
:101BE00014BF2543A5439D60DD681AF4001F14BF90
:101BF0002C4325EA0404DC60013671E7DFF87C90B1
:101C00004D450CD017D8A9F580194D4507D009F5D9
:101C100070294D4503D0A9F580194D4582D18A68B8
:101C2000D2B1012A08BFC0F810804FF0080218BFD7
:101C3000C0F8148076E76545F1D07545EEE7CA68CF
:101C400070E7CA6804326DE7CA6808326AE7CA6892
:101C50000C3267E7002265E7042263E70025A8E766
:101C60000125A6E70225A4E7001002400004014078
:101C70000000311000003210000801400000221066
:101C80000AB1016170470904FBE700002DE9F34147
:101C9000054638B30368DB0710D42B689F075ED472
:101CA0002B68190700F195802B685A0700F1C18055
:101CB000E869002840F02C81002029E0904C6368FE
:101CC00003F00C03042B07D0636803F00C03082B0C
:101CD0000AD16368DE0307D523689C03DDD56B68F2
:101CE000002BDAD1012013E06B68B3F5803F12D1ED
:101CF000236843F480332360FFF708FC064623681B
:101D00009803CAD4FFF702FC801B6428F7D903208C
:101D100002B0BDE8F0819BB9236823F480332360CF
:101D2000236823F480232360FFF7F0FB0646236833
:101D30009903B2D5FFF7EAFB801B6428F7D9E6E7E1
:101D4000B3F5A02F236803D143F480232360CFE7AA
:101D500023F480332360236823F48023CBE7684C8B
:101D6000636813F00C0F07D0636803F00C03082BB3
:101D700010D16368DA030DD423689B0702D52B6961
:101D8000012BAFD123686A6923F0F80343EAC20349
:101D9000236085E72A695B4B6AB101221A60FFF76D
:101DA000B5FB064623689F07ECD4FFF7AFFB801B0B
:101DB0000228F7D9ABE71A60FFF7A8FB06462368AD
:101DC00098077FF56DAFFFF7A1FB801B0228F6D9BE
:101DD0009DE7AA694A4E4B4BE2B10122C3F8802429
:101DE000FFF794FB0446736A9B070DD54FF4FA5234
:101DF000454B1B68B3FBF2F3019300BF019B5A1ED6
:101E00000192002BF9D14FE7FFF780FB001B02285E
:101E1000E9D97CE7C3F88024FFF778FB0446736AAE
:101E20009F077FF541AFFFF771FB001B0228F6D932
:101E30006DE7334CE369D80024D40127E36943F00C
:101E40008053E361E36903F080530093009B2F4EBE
:101E50003368D90518D5EB68012B26D1236A43F0E6
:101E600001032362FFF752FB41F288380646236ADA
:101E70009B073FD5002F3FF41BAFE36923F080534E
:101E8000E36115E70027E2E7336843F480733360CA
:101E9000FFF73CFB80463368DA05DCD4FFF736FBFE
:101EA000A0EB08006428F6D931E7ABB9236A41F208
:101EB000883823F001032362236A23F0040323629A
:101EC000FFF724FB0646236A9807D3D5FFF71EFBCE
:101ED000801B4045F7D91AE7052B236A03D143F04D
:101EE00004032362BAE723F001032362236A23F089
:101EF0000403B6E7FFF70AFB801B4045B7D906E7A6
:101F000000100240000042421C000020007000400F
:101F10002A4C636803F00C03082B3ED00022284BA8
:101F200002281A662CD1FFF7F1FA064623689901B8
:101F300020D42B6AB3F5803F05D16268A96822F4EA
:101F400000320A436260696A62680B4322F47412C9
:101F50001343012263601A4B1A66FFF7D7FA05464E
:101F600023689A013FF5A8AEFFF7D0FA401B02287C
:101F7000F6D9CCE6FFF7CAFA801B0228D6D9C6E606
:101F8000FFF7C4FA054623689B017FF595AEFFF77E
:101F9000BDFA401B0228F6D9B9E601283FF4B8AED5
:101FA00063682A6A03F4803191427FF49BAE6A6AC7
:101FB00003F4701393423FF47FAE93E600100240A7
:101FC0000000424230B5184B87B002AC03F1100557
:101FD000224618685968083303C2AB421446F7D149
:101FE00040F201231149ADF804304B6803F00C02B4
:101FF000082A17D1C3F3834218326A44DB0312F86C
:10200000100C0CD54B680A4AC3F3404350431833B5
:102010006B4413F8143CB0FBF3F007B030BD054B34
:102020005843FAE70248F8E760270008001002402A
:1020300000127A0000093D002DE9F0410D460446EA
:1020400010B90120BDE8F081444A136803F007038A
:102050008B4228D321688E0730D4CA0743D43F4A25
:10206000136803F00703AB4265D822683C4D12F0B9
:10207000040F6CD1130706D56B68226923F46053F3
:1020800043EAC2036B60FFF79DFF6B68354AC3F3F9
:102090000313D35CD840344B1860344B1868FFF7F7
:1020A000F3F90020CEE7136823F007030B43136016
:1020B000136803F007038B42C3D1CBE7284B11F021
:1020C000040F1EBF5A6842F4E0625A60080742BF1C
:1020D0005A6842F460525A605A68A06822F0F002CE
:1020E00002435A60B9E762681D4E012A33681AD16B
:1020F00013F4003FA5D0736841F2883823F003033E
:1021000013437360FFF702FA07467368626803F0CF
:102110000C03B3EB820FA2D0FFF7F8F9C01B4045C8
:10212000F3D903208EE7022A02D113F0007FE1E702
:1021300013F0020FDEE7136823F007032B4313604D
:10214000136803F00703AB427FF47BAF8DE76B6846
:10215000E16823F4E0630B436B608BE700200240EF
:1021600000100240482700081C0000202400002026
:10217000044B054A5B68C3F3C223D35C034A10686F
:10218000D840704700100240582700081C0000206B
:1021900003682DE9F341D907054620D5364CE3699C
:1021A000DA0032D40126E36943F08053E361E36946
:1021B00003F080530193019B304F3B68DB0526D52C
:1021C000236A13F4407336D1236A6A6823F4407398
:1021D000134323621EB1E36923F08053E36128684F
:1021E000830706D52449AB684A6822F440421A4363
:1021F0004A6010F010001BD01F4AE96853680020A5
:1022000023F480030B43536012E00026D4E73B68BD
:1022100043F480733B60FFF779F980463B68D8054B
:10222000CED4FFF773F9A0EB08006428F6D9032099
:1022300002B0BDE8F0816A6802F440729A42C3D0ED
:1022400001200F4A236AC2F84004002023F44071A1
:10225000C2F840042162D907B6D5FFF757F941F219
:1022600088380746236A9A07AED4FFF74FF9C01B98
:102270004045F7D9DBE700BF001002400070004086
:1022800000004242024670B5334B86B002AD03F106
:1022900010062C4618685968083303C4B342254613
:1022A000F7D140F20123022AADF8043047D0102ABA
:1022B00003D0012A24D0002036E0284A5168106853
:1022C00010F0807030D0C1F3834318336B44C903DE
:1022D00013F8100C49BF5368214BC3F34043183324
:1022E00041BF6B4413F8141C1E4BB3FBF1F358436E
:1022F00053685B0218D403234000B0FBF3F013E0F3
:1023000040F20231154A136A1940B1F5817F1FD09E
:1023100003F44073B3F5007F08D149F64043506A97
:1023200010F0020018BF184606B070BDB3F5407F2C
:10233000C1D110684FF2244310F40030F2E7FFF7E8
:1023400017FF064B5B68C3F3813301335B00D4E7AF
:102350004FF40040E8E700BF60270008001002408B
:1023600000093D0000127A002DE9F3411C46164693
:102370000F460546FFF7CAF83444241AFFF7C6F89B
:102380008046234B1B68C3F3CB3363432A68019316
:10239000936837EA030301D000202EE0731CF7D0C6
:1023A000FFF7B4F8A0EB0800A04229D32B685A68C5
:1023B00022F0E0025A606A68B2F5827F0AD1AA6808
:1023C000B2F5004F02D0B2F5806F03D11A6822F047
:1023D00040021A60AA6AB2F5005F07D11A6822F4B7
:1023E00000521A601A6842F400521A60012385F8FC
:1023F00051300023032085F8503002B0BDE8F08151
:10240000019B002B019B08BF0024013BBEE700BFDE
:102410001C00002010B513460A4680210446FFF731
:10242000A3FF20B10320636D43F02003636510BD5B
:1024300010B50446002851D0436A002B4AD14268A7
:10244000B2F5827F00D0C3610023A36294F85130BB
:1024500003F0FF0223B9204684F85020FEF7A0FFC6
:102460000223226884F851301368A06823F04003E7
:102470001360636800F4044003F482730343E0686C
:10248000A16900F400600343206900F002000343E7
:10249000606900F00100034301F400700343E06948
:1024A000090C00F038000343206A01F0040100F039
:1024B00080000343A06A00F400500343136051609E
:1024C000D369002023F40063D3610123606584F89D
:1024D000513010BD0023C0E90433B5E70120F8E70F
:1024E0002DE9F7431E4690F850300446012B0D4667
:1024F00091460A9F00F0E680012380F85030FFF7F4
:1025000005F894F851308046012B6268D9B20AD0A0
:10251000B2F5827F40F0D480A368002B40F0D080D9
:10252000042940F0CD80002D40D0B9F1000F3DD0FE
:10253000002E3BD094F85130C4F83890042B1CBFC7
:10254000052384F8513000236365C4E91033236800
:10255000E687E6861968A687490658BF1968256385
:1025600058BF41F04001A68658BF1960E168B1F537
:10257000006F52D10AB1012E07D135F8022BDA6073
:10258000E38E2563013B9BB2E3860125E38E9BB27C
:1025900073B9E38F9BB25BB9424639462046FFF7D9
:1025A00039FF002800F081802023636501202BE0A3
:1025B00021688B689E070DD5E38E9BB253B14DB158
:1025C0000025236B33F8022BCA602363E38E013BA3
:1025D0009BB2E3868A6812F001020CD0E38F9BB2B3
:1025E0004BB11546C968A36B23F8021BA363E38FA5
:1025F000013B9BB2E387FEF789FFA0EB0800B842DE
:10260000C4D3781CC2D00320012384F851300023A6
:1026100084F8503003B0BDE8F0830AB1012E08D130
:102620002A781A73236B01332363E38E013B9BB239
:10263000E38601252DE02268936899070ED5E38E85
:102640009BB25BB155B10025236B1B781373236BD1
:1026500001332363E38E013B9BB2E38622689168DA
:1026600011F001010DD0E38F9BB253B10D46D2683A
:10267000A36B1A70A36B0133A363E38F013B9BB27F
:10268000E387FEF743FFA0EB0800B8420AD37B1CA8
:10269000B9D1E38E9BB2002BCDD1E38F9BB2002B3F
:1026A000C9D179E7002FF4D1ADE7A368002BABD1F6
:1026B00023680190DA6801929B680193019BA3E76C
:1026C0000220A1E70220A5E770B500260C4D0D4CB5
:1026D000641BA410A64209D100F022F800260A4D7E
:1026E0000A4C641BA410A64205D170BD55F8043BEA
:1026F00098470136EEE755F8043B98470136F2E774
:102700007427000874270008742700087827000839
:1027100003460244934200D1704703F8011BF9E7D6
:10272000F8B500BFF8BC08BC9E467047F8B500BFBE
:08273000F8BC08BC9E4670478E
:10273800A5A5A5A5A5003443101001344310100128
:102748000000000000000000010203040607080959
:10275800000000000102030402030405060708093B
:0C2768000A0B0C0D0E0F101000000000FA
:042774003501000823
:042778001101000843
:10277C0088669E3BB53D553BCC996D3C52669E3C64
:10278C00D0CCB83C7266E03C3333333F0024F400C9
:08279C00010000001000000024
:040000050800143D9E
:00000001FF
